:020000040000FA
:02000000F928DD
:040002000034003492
:08000800F000030EF100831269
:1000100003138C1E3428831203131A08AB004130DB
:100020002B060319202842302B06031925284330BC
:100030002B0603192A2844302B0603192F283428AD
:10004000831203130616B7203428831203130612F3
:10005000B7203428831203132C14B72034288312BA
:1000600003132C10B7203428831203130B1D7C2894
:100070000B110630810083120313A00A0319A10A91
:1000800083120313A90803194A28A90B4A288312CB
:1000900003130610831203139F14831203138701A3
:1000A000831203132608003A03195F282608013A31
:1000B000031967282608023A03196F2877282508AC
:1000C000DB208800013087000130A6007C2824084E
:1000D000DB208800023087000230A6007C2823083D
:1000E000DB208800043087000330A6007C283830ED
:1000F000880008308700A601831203130C1FA8286C
:100100000C13831203132C1C8F2883120313AE0BC2
:100110008F280A30AE00831203131E08BE208312FC
:1001200003131E087F3C031C9628A5288312031383
:100130002808013A0319A828A20A0130A800323081
:10014000A900831203130614A82883120313A8011D
:1001500083120313710E8300F00E700E09008316D4
:100160000313981CB12883120313990008004F3021
:10017000AF204B30AF200A30AF200800AB00AD01FC
:1001800064302B02031CC728AB00AD0AC0282D0821
:10019000303EAF20AD010A302B02031CD228AB0049
:1001A000AD0ACB282D08303EAF202B08303EAF20C3
:1001B0000A30AF2008000F3982073F3406345B3421
:1001C0004F3466346D347D3407347F346734A50191
:1001D000A4012A08A30064302302031CF228A30010
:1001E000A50AEB280A302302031C0800A300A40A76
:1001F000F228831603130514880187018717071354
:100200008316031306100612831203130610061238
:10021000831603170814831603139F138312031303
:1002200041309F00831603130C309900831603138B
:100230002430980083120313903098008316031320
:10024000D130810083120313A001A101A201A601F4
:10025000AC01A801A9013230AE00831603130C17BC
:100260008C16831203138B160B178B175230AF208B
:100270004430AF205930AF200A30AF20831203132F
:100280002108273C031D3E292008103C03183E2965
:100290008B132208A7000310A70D2708AA0003103C
:1002A000A70D2708AA07A001A101A201E7208B172B
:1002B0004230AF205030AF204D30AF203A30AF2029
:0602C0002A08BE203E29C1
:02400E00E120AF
:02401000FF3F70
:00000001FF
