:020000040000FA
:02000000F628E0
:040002000034003492
:08000800F000030EF100831269
:1000100003138C1E3428831203131A08AB004130DB
:100020002B060319202842302B06031925284330BC
:100030002B0603192A2844302B0603192F283428AD
:10004000831203130616B4203428831203130612F6
:10005000B4203428831203132C14B42034288312C0
:1000600003132C10B4203428831203130B1D79289A
:100070000B110630810083120313A00A0319A10A91
:1000800083120313A90803199C28A90B9C28831227
:100090000313061083120313870183120313260828
:1000A000003A03195C282608013A03196428260837
:1000B000023A03196C2874282508D82088000130DA
:1000C00087000130A60079282408D8208800023053
:1000D00087000230A60079282308D8208800043041
:1000E00087000330A6007928383088000830870060
:1000F000A601831203130C1FA5280C1383120313EC
:100100002C1C8C2883120313AE0B8C280A30AE00F3
:10011000831203131E08BB20831203131E087F3CA7
:10012000031C9328A228831203132808013A0319F9
:10013000A528A20A0130A8003230A90083120313B7
:100140000614A52883120313A80183120313710E4A
:100150008300F00E700E090083160313981CAE285E
:1001600083120313990008004F30AC204B30AC20B1
:100170000A30AC200800AB00AD0164302B02031C38
:10018000C428AB00AD0ABD282D08303EAC20AD011F
:100190000A302B02031CCF28AB00AD0AC8282D085B
:1001A000303EAC202B08303EAC200A30AC2008009A
:1001B0000F3982073F3406345B344F3466346D3474
:1001C0007D3407347F346734A501A4012A08A300D5
:1001D00064302302031CEF28A300A50AE8280A3094
:1001E0002302031C0800A300A40AEF2883160313AC
:1001F0000514880187018717071383160313061058
:10020000061283120313061006128316031708142E
:10021000831603139F138312031341309F00831629
:1002200003130C30990083160313243098008312B3
:1002300003139030980083160313D130810083128A
:100240000313A001A101A201A601AC01A801A9010B
:100250003230AE00831603130C178C16831203136F
:100260008B160B178B175230AC204430AC20593012
:10027000AC200A30AC20831203132108273C031D55
:100280003B292008103C03183B298B132208A700A8
:100290000310A70D2708AA000310A70D2708AA0717
:1002A000A001A101A201E4208B174230AC20503004
:1002B000AC204D30AC203A30AC202A08BB203B2982
:02400E00E120AF
:02401000FF3F70
:00000001FF
